{
  "contractName": "SSMTokenSale",
  "abi": [
    {
      "inputs": [
        {
          "internalType": "contract SSMToken",
          "name": "_tokenContract",
          "type": "address"
        },
        {
          "internalType": "uint256",
          "name": "_tokenPrice",
          "type": "uint256"
        }
      ],
      "stateMutability": "nonpayable",
      "type": "constructor"
    },
    {
      "anonymous": false,
      "inputs": [
        {
          "indexed": false,
          "internalType": "address",
          "name": "_buyer",
          "type": "address"
        },
        {
          "indexed": false,
          "internalType": "uint256",
          "name": "_amount",
          "type": "uint256"
        }
      ],
      "name": "Sell",
      "type": "event"
    },
    {
      "inputs": [],
      "name": "tokenContract",
      "outputs": [
        {
          "internalType": "contract SSMToken",
          "name": "",
          "type": "address"
        }
      ],
      "stateMutability": "view",
      "type": "function"
    },
    {
      "inputs": [],
      "name": "tokenPrice",
      "outputs": [
        {
          "internalType": "uint256",
          "name": "",
          "type": "uint256"
        }
      ],
      "stateMutability": "view",
      "type": "function"
    },
    {
      "inputs": [],
      "name": "tokensSold",
      "outputs": [
        {
          "internalType": "uint256",
          "name": "",
          "type": "uint256"
        }
      ],
      "stateMutability": "view",
      "type": "function"
    },
    {
      "inputs": [
        {
          "internalType": "uint256",
          "name": "_numberOfTokens",
          "type": "uint256"
        }
      ],
      "name": "buyTokens",
      "outputs": [],
      "stateMutability": "payable",
      "type": "function"
    }
  ],
  "bytecode": "0x608060405234801561001057600080fd5b506040516105023803806105028339818101604052604081101561003357600080fd5b810190808051906020019092919080519060200190929190505050336000806101000a81548173ffffffffffffffffffffffffffffffffffffffff021916908373ffffffffffffffffffffffffffffffffffffffff16021790555081600160006101000a81548173ffffffffffffffffffffffffffffffffffffffff021916908373ffffffffffffffffffffffffffffffffffffffff16021790555080600281905550505061041b806100e76000396000f3fe60806040526004361061003f5760003560e01c80633610724e14610044578063518ab2a81461007257806355a373d61461009d5780637ff9b596146100f4575b600080fd5b6100706004803603602081101561005a57600080fd5b810190808035906020019092919050505061011f565b005b34801561007e57600080fd5b50610087610387565b6040518082815260200191505060405180910390f35b3480156100a957600080fd5b506100b261038d565b604051808273ffffffffffffffffffffffffffffffffffffffff1673ffffffffffffffffffffffffffffffffffffffff16815260200191505060405180910390f35b34801561010057600080fd5b506101096103b3565b6040518082815260200191505060405180910390f35b61012b816002546103b9565b341461013657600080fd5b80600160009054906101000a900473ffffffffffffffffffffffffffffffffffffffff1673ffffffffffffffffffffffffffffffffffffffff166370a08231306040518263ffffffff1660e01b8152600401808273ffffffffffffffffffffffffffffffffffffffff1673ffffffffffffffffffffffffffffffffffffffff16815260200191505060206040518083038186803b1580156101d657600080fd5b505afa1580156101ea573d6000803e3d6000fd5b505050506040513d602081101561020057600080fd5b8101908080519060200190929190505050101561021c57600080fd5b600160009054906101000a900473ffffffffffffffffffffffffffffffffffffffff1673ffffffffffffffffffffffffffffffffffffffff1663a9059cbb33836040518363ffffffff1660e01b8152600401808373ffffffffffffffffffffffffffffffffffffffff1673ffffffffffffffffffffffffffffffffffffffff16815260200182815260200192505050602060405180830381600087803b1580156102c557600080fd5b505af11580156102d9573d6000803e3d6000fd5b505050506040513d60208110156102ef57600080fd5b810190808051906020019092919050505061030957600080fd5b806003600082825401925050819055507f5e5e995ce3133561afceaa51a9a154d5db228cd7525d34df5185582c18d3df093382604051808373ffffffffffffffffffffffffffffffffffffffff1673ffffffffffffffffffffffffffffffffffffffff1681526020018281526020019250505060405180910390a150565b60035481565b600160009054906101000a900473ffffffffffffffffffffffffffffffffffffffff1681565b60025481565b6000808214806103d657508282838502925082816103d357fe5b04145b6103df57600080fd5b9291505056fea2646970667358221220444f5b98062b08c4f598a81a83e76a464e02e7d64a0894e7c9c577ce4d74b74664736f6c634300060a0033",
  "immutableReferences": {},
  "source": "// SPDX-License-Identifier: MIT\npragma solidity >=0.4.22 <0.9.0;\n\nimport \"./SSMToken.sol\";\n\ncontract SSMTokenSale {\n    address admin; \n    SSMToken public tokenContract;\n    uint256 public tokenPrice; \n    uint256 public tokensSold; \n\n    event Sell(address _buyer, uint256 _amount);\n\n    constructor(SSMToken _tokenContract, uint256 _tokenPrice) public { \n        admin = msg.sender; \n        tokenContract = _tokenContract;\n        tokenPrice = _tokenPrice;\n    }\n\n    //multiply function\n    function multiply(uint x, uint y) internal pure returns (uint z) {\n        require(y==0 || (z = x * y)/ y == x); \n    }\n\n\n  //Buying the tokens\n    function buyTokens(uint256 _numberOfTokens) public payable{\n        //require that value is equal to tokens\n        require(msg.value == multiply(_numberOfTokens, tokenPrice));\n        //require contract has enough tokens\n        require(tokenContract.balanceOf(address(this)) >= _numberOfTokens);\n        //require transfer is successful \n        require(tokenContract.transfer(msg.sender, _numberOfTokens));\n        //keep track of tokensSold\n        tokensSold += _numberOfTokens; \n        //trigger sell event\n        emit Sell(msg.sender, _numberOfTokens);\n    }\n\n\n\n//Ending the sale \n    // function endSale() public {\n    //     //Require admin \n    //     require(msg.sender == admin);\n    //     require(tokenContract.transfer(admin, tokenContract.balanceOf(address(this))));\n\n    //     //transfer tokens in sale back to admin\n    //     selfdestruct(msg.sender);\n    // }\n\n\n}",
  "sourcePath": "/Users/sivasankarant/Documents/dev/SSM Tenant/SSM tenant Ui/ssmui/contracts/SSMTokenSale.sol",
  "compiler": {
    "name": "solc",
    "version": "0.6.10+commit.00c0fcaf.Emscripten.clang"
  },
  "schemaVersion": "3.3.4",
  "updatedAt": "2021-04-23T14:46:23.403Z",
  "devdoc": {
    "methods": {}
  },
  "userdoc": {
    "methods": {}
  }
}